{
  "contractName": "Exchange",
  "abi": [
    {
      "payable": true,
      "stateMutability": "payable",
      "type": "fallback"
    },
    {
      "anonymous": false,
      "inputs": [
        {
          "indexed": true,
          "name": "_from",
          "type": "address"
        },
        {
          "indexed": true,
          "name": "_symbolIndex",
          "type": "uint256"
        },
        {
          "indexed": false,
          "name": "_amount",
          "type": "uint256"
        },
        {
          "indexed": false,
          "name": "_timestamp",
          "type": "uint256"
        }
      ],
      "name": "DepositForTokenReceived",
      "type": "event"
    },
    {
      "anonymous": false,
      "inputs": [
        {
          "indexed": true,
          "name": "_to",
          "type": "address"
        },
        {
          "indexed": true,
          "name": "_symbolIndex",
          "type": "uint256"
        },
        {
          "indexed": false,
          "name": "_amount",
          "type": "uint256"
        },
        {
          "indexed": false,
          "name": "_timestamp",
          "type": "uint256"
        }
      ],
      "name": "WithdrawalToken",
      "type": "event"
    },
    {
      "anonymous": false,
      "inputs": [
        {
          "indexed": true,
          "name": "_from",
          "type": "address"
        },
        {
          "indexed": false,
          "name": "_amount",
          "type": "uint256"
        },
        {
          "indexed": false,
          "name": "_timestamp",
          "type": "uint256"
        }
      ],
      "name": "DepositForEthReceived",
      "type": "event"
    },
    {
      "anonymous": false,
      "inputs": [
        {
          "indexed": true,
          "name": "_to",
          "type": "address"
        },
        {
          "indexed": false,
          "name": "_amount",
          "type": "uint256"
        },
        {
          "indexed": false,
          "name": "_timestamp",
          "type": "uint256"
        }
      ],
      "name": "WithdrawalEth",
      "type": "event"
    },
    {
      "anonymous": false,
      "inputs": [
        {
          "indexed": true,
          "name": "_symbolIndex",
          "type": "uint256"
        },
        {
          "indexed": true,
          "name": "_who",
          "type": "address"
        },
        {
          "indexed": false,
          "name": "_amountTokens",
          "type": "uint256"
        },
        {
          "indexed": false,
          "name": "_priceInWei",
          "type": "uint256"
        },
        {
          "indexed": false,
          "name": "_orderKey",
          "type": "uint256"
        }
      ],
      "name": "LimitSellOrderCreated",
      "type": "event"
    },
    {
      "anonymous": false,
      "inputs": [
        {
          "indexed": true,
          "name": "_symbolIndex",
          "type": "uint256"
        },
        {
          "indexed": false,
          "name": "_amount",
          "type": "uint256"
        },
        {
          "indexed": false,
          "name": "_priceInWei",
          "type": "uint256"
        },
        {
          "indexed": false,
          "name": "_orderKey",
          "type": "uint256"
        }
      ],
      "name": "SellOrderFulfilled",
      "type": "event"
    },
    {
      "anonymous": false,
      "inputs": [
        {
          "indexed": true,
          "name": "_symbolIndex",
          "type": "uint256"
        },
        {
          "indexed": false,
          "name": "_priceInWei",
          "type": "uint256"
        },
        {
          "indexed": false,
          "name": "_orderKey",
          "type": "uint256"
        }
      ],
      "name": "SellOrderCanceled",
      "type": "event"
    },
    {
      "anonymous": false,
      "inputs": [
        {
          "indexed": true,
          "name": "_symbolIndex",
          "type": "uint256"
        },
        {
          "indexed": true,
          "name": "_who",
          "type": "address"
        },
        {
          "indexed": false,
          "name": "_amountTokens",
          "type": "uint256"
        },
        {
          "indexed": false,
          "name": "_priceInWei",
          "type": "uint256"
        },
        {
          "indexed": false,
          "name": "_orderKey",
          "type": "uint256"
        }
      ],
      "name": "LimitBuyOrderCreated",
      "type": "event"
    },
    {
      "anonymous": false,
      "inputs": [
        {
          "indexed": true,
          "name": "_symbolIndex",
          "type": "uint256"
        },
        {
          "indexed": false,
          "name": "_amount",
          "type": "uint256"
        },
        {
          "indexed": false,
          "name": "_priceInWei",
          "type": "uint256"
        },
        {
          "indexed": false,
          "name": "_orderKey",
          "type": "uint256"
        }
      ],
      "name": "BuyOrderFulfilled",
      "type": "event"
    },
    {
      "anonymous": false,
      "inputs": [
        {
          "indexed": true,
          "name": "_symbolIndex",
          "type": "uint256"
        },
        {
          "indexed": false,
          "name": "_priceInWei",
          "type": "uint256"
        },
        {
          "indexed": false,
          "name": "_orderKey",
          "type": "uint256"
        }
      ],
      "name": "BuyOrderCanceled",
      "type": "event"
    },
    {
      "anonymous": false,
      "inputs": [
        {
          "indexed": false,
          "name": "_symbolIndex",
          "type": "uint256"
        },
        {
          "indexed": false,
          "name": "_token",
          "type": "string"
        },
        {
          "indexed": false,
          "name": "_timestamp",
          "type": "uint256"
        }
      ],
      "name": "TokenAddedToSystem",
      "type": "event"
    },
    {
      "constant": false,
      "inputs": [],
      "name": "depositEther",
      "outputs": [],
      "payable": true,
      "stateMutability": "payable",
      "type": "function"
    },
    {
      "constant": false,
      "inputs": [
        {
          "name": "amountInWei",
          "type": "uint256"
        }
      ],
      "name": "withdrawEther",
      "outputs": [],
      "payable": false,
      "stateMutability": "nonpayable",
      "type": "function"
    },
    {
      "constant": true,
      "inputs": [],
      "name": "getEthBalanceInWei",
      "outputs": [
        {
          "name": "",
          "type": "uint256"
        }
      ],
      "payable": false,
      "stateMutability": "view",
      "type": "function"
    },
    {
      "constant": true,
      "inputs": [
        {
          "name": "symbolName",
          "type": "string"
        }
      ],
      "name": "hasToken",
      "outputs": [
        {
          "name": "",
          "type": "bool"
        }
      ],
      "payable": false,
      "stateMutability": "view",
      "type": "function"
    },
    {
      "constant": false,
      "inputs": [
        {
          "name": "symbolName",
          "type": "string"
        },
        {
          "name": "erc20TokenAddress",
          "type": "address"
        }
      ],
      "name": "addToken",
      "outputs": [],
      "payable": false,
      "stateMutability": "nonpayable",
      "type": "function"
    },
    {
      "constant": false,
      "inputs": [
        {
          "name": "symbolName",
          "type": "string"
        },
        {
          "name": "amount",
          "type": "uint256"
        }
      ],
      "name": "depositToken",
      "outputs": [],
      "payable": false,
      "stateMutability": "nonpayable",
      "type": "function"
    },
    {
      "constant": false,
      "inputs": [
        {
          "name": "symbolName",
          "type": "string"
        },
        {
          "name": "amount",
          "type": "uint256"
        }
      ],
      "name": "withdrawToken",
      "outputs": [],
      "payable": false,
      "stateMutability": "nonpayable",
      "type": "function"
    },
    {
      "constant": true,
      "inputs": [
        {
          "name": "symbolName",
          "type": "string"
        }
      ],
      "name": "getBalance",
      "outputs": [
        {
          "name": "",
          "type": "uint256"
        }
      ],
      "payable": false,
      "stateMutability": "view",
      "type": "function"
    },
    {
      "constant": true,
      "inputs": [
        {
          "name": "symbolName",
          "type": "string"
        }
      ],
      "name": "getBuyOrderBook",
      "outputs": [
        {
          "name": "",
          "type": "uint256[]"
        },
        {
          "name": "",
          "type": "uint256[]"
        }
      ],
      "payable": false,
      "stateMutability": "view",
      "type": "function"
    },
    {
      "constant": true,
      "inputs": [
        {
          "name": "tokenSymbol",
          "type": "string"
        },
        {
          "name": "price",
          "type": "uint256"
        },
        {
          "name": "offerIdx",
          "type": "uint8"
        }
      ],
      "name": "getAmount",
      "outputs": [
        {
          "name": "",
          "type": "uint256"
        }
      ],
      "payable": false,
      "stateMutability": "view",
      "type": "function"
    },
    {
      "constant": true,
      "inputs": [
        {
          "name": "symbolName",
          "type": "string"
        }
      ],
      "name": "getSellOrderBook",
      "outputs": [
        {
          "name": "",
          "type": "uint256[]"
        },
        {
          "name": "",
          "type": "uint256[]"
        }
      ],
      "payable": false,
      "stateMutability": "view",
      "type": "function"
    },
    {
      "constant": false,
      "inputs": [
        {
          "name": "symbolName",
          "type": "string"
        },
        {
          "name": "priceInWei",
          "type": "uint256"
        },
        {
          "name": "amount",
          "type": "uint256"
        }
      ],
      "name": "buyToken",
      "outputs": [],
      "payable": false,
      "stateMutability": "nonpayable",
      "type": "function"
    },
    {
      "constant": false,
      "inputs": [
        {
          "name": "symbolName",
          "type": "string"
        },
        {
          "name": "priceInWei",
          "type": "uint256"
        },
        {
          "name": "amount",
          "type": "uint256"
        }
      ],
      "name": "sellToken",
      "outputs": [],
      "payable": false,
      "stateMutability": "nonpayable",
      "type": "function"
    },
    {
      "constant": false,
      "inputs": [
        {
          "name": "symbolName",
          "type": "string"
        },
        {
          "name": "isSellOrder",
          "type": "bool"
        },
        {
          "name": "priceInWei",
          "type": "uint256"
        },
        {
          "name": "offerKey",
          "type": "uint256"
        }
      ],
      "name": "cancelOrder",
      "outputs": [],
      "payable": false,
      "stateMutability": "nonpayable",
      "type": "function"
    }
  ],
  "bytecode": "0x6080604052336000806101000a81548173ffffffffffffffffffffffffffffffffffffffff021916908373ffffffffffffffffffffffffffffffffffffffff160217905550612de1806100536000396000f3006080604052600436106100d0576000357c0100000000000000000000000000000000000000000000000000000000900463ffffffff16806303bc4a27146100d25780631a8eb72b146101d857806333ad57e4146102035780633a51d246146102485780633bed33ce146102c55780635ab8ea33146102f2578063728ff0291461036f578063851030fe146104755780638ea00818146104f25780639848c9081461057357806398ea5fca14610607578063b0b22c2c14610611578063c97a413a1461069a578063d1a3b025146106df575b005b3480156100de57600080fd5b50610139600480360381019080803590602001908201803590602001908080601f0160208091040260200160405190810160405280939291908181526020018383808284378201915050505050509192919290505050610768565b604051808060200180602001838103835285818151815260200191508051906020019060200280838360005b83811015610180578082015181840152602081019050610165565b50505050905001838103825284818151815260200191508051906020019060200280838360005b838110156101c25780820151818401526020810190506101a7565b5050505090500194505050505060405180910390f35b3480156101e457600080fd5b506101ed61099e565b6040518082815260200191505060405180910390f35b34801561020f57600080fd5b50610246600480360381019080803590602001908201803590602001919091929391929390803590602001909291905050506109e5565b005b34801561025457600080fd5b506102af600480360381019080803590602001908201803590602001908080601f0160208091040260200160405190810160405280939291908181526020018383808284378201915050505050509192919290505050610ca9565b6040518082815260200191505060405180910390f35b3480156102d157600080fd5b506102f060048036038101908080359060200190929190505050610d28565b005b3480156102fe57600080fd5b5061036d600480360381019080803590602001908201803590602001908080601f01602080910402602001604051908101604052809392919081815260200183838082843782019150505050505091929192908035906020019092919080359060200190929190505050610ef2565b005b34801561037b57600080fd5b506103d6600480360381019080803590602001908201803590602001908080601f0160208091040260200160405190810160405280939291908181526020018383808284378201915050505050509192919290505050611e70565b604051808060200180602001838103835285818151815260200191508051906020019060200280838360005b8381101561041d578082015181840152602081019050610402565b50505050905001838103825284818151815260200191508051906020019060200280838360005b8381101561045f578082015181840152602081019050610444565b5050505090500194505050505060405180910390f35b34801561048157600080fd5b506104f0600480360381019080803590602001908201803590602001908080601f01602080910402602001604051908101604052809392919081815260200183838082843782019150505050505091929192908035906020019092919080359060200190929190505050611e78565b005b3480156104fe57600080fd5b50610559600480360381019080803590602001908201803590602001908080601f0160208091040260200160405190810160405280939291908181526020018383808284378201915050505050509192919290505050611e7d565b604051808215151515815260200191505060405180910390f35b34801561057f57600080fd5b506105f1600480360381019080803590602001908201803590602001908080601f016020809104026020016040519081016040528093929190818152602001838380828437820191505050505050919291929080359060200190929190803560ff169060200190929190505050611eab565b6040518082815260200191505060405180910390f35b61060f611f0b565b005b34801561061d57600080fd5b50610698600480360381019080803590602001908201803590602001908080601f0160208091040260200160405190810160405280939291908181526020018383808284378201915050505050509192919290803573ffffffffffffffffffffffffffffffffffffffff16906020019092919050505061203f565b005b3480156106a657600080fd5b506106dd60048036038101908080359060200190820180359060200191909192939192939080359060200190929190505050612254565b005b3480156106eb57600080fd5b50610766600480360381019080803590602001908201803590602001908080601f016020809104026020016040519081016040528093929190818152602001838380828437820191505050505050919291929080351515906020019092919080359060200190929190803590602001909291905050506124a9565b005b606080600080606080600080600061077f8a6124af565b9650600160008860ff1660ff168152602001908152602001600020600501549550856040519080825280602002602001820160405280156107cf5781602001602082028038833980820191505090505b509450856040519080825280602002602001820160405280156108015781602001602082028038833980820191505090505b509350600086141561081857848498509850610992565b600160008860ff1660ff168152602001908152602001600020600301549250600091505b60011561098b5782858360ff1681518110151561085557fe5b9060200190602002018181525050600190505b600160008860ff1660ff1681526020019081526020016000206002016000848152602001908152602001600020600401548160ff1611151561091e57600160008860ff1660ff168152602001908152602001600020600201600084815260200190815260200160002060020160008260ff16815260200190815260200160002060000154848360ff168151811015156108fd57fe5b90602001906020020181815101915081815250508080600101915050610868565b600160008860ff1660ff16815260200190815260200160002060020160008481526020019081526020016000206001015492508180600101925050600160008860ff1660ff168152602001908152602001600020600501548260ff161015156109865761098b565b61083c565b8484985098505b50505050505050915091565b6000600460003373ffffffffffffffffffffffffffffffffffffffff1673ffffffffffffffffffffffffffffffffffffffff16815260200190815260200160002054905090565b600080600080841115156109f857600080fd5b610a3386868080601f0160208091040260200160405190810160405280939291908181526020018383808284378201915050505050506124d7565b925060008360ff16111515610a4757600080fd5b600160008460ff1660ff16815260200190815260200160002060000160009054906101000a900473ffffffffffffffffffffffffffffffffffffffff169150600073ffffffffffffffffffffffffffffffffffffffff168273ffffffffffffffffffffffffffffffffffffffff1614151515610ac257600080fd5b610afd86868080601f016020809104026020016040519081016040528093929190818152602001838380828437820191505050505050610ca9565b90506000848201111515610b1057600080fd5b80848201111515610b2057600080fd5b8173ffffffffffffffffffffffffffffffffffffffff166323b872dd3330876040518463ffffffff167c0100000000000000000000000000000000000000000000000000000000028152600401808473ffffffffffffffffffffffffffffffffffffffff1673ffffffffffffffffffffffffffffffffffffffff1681526020018373ffffffffffffffffffffffffffffffffffffffff1673ffffffffffffffffffffffffffffffffffffffff1681526020018281526020019350505050602060405180830381600087803b158015610bf757600080fd5b505af1158015610c0b573d6000803e3d6000fd5b505050506040513d6020811015610c2157600080fd5b81019080805190602001909291905050501515610c3d57600080fd5b83600360003373ffffffffffffffffffffffffffffffffffffffff1673ffffffffffffffffffffffffffffffffffffffff16815260200190815260200160002060008560ff1660ff16815260200190815260200160002060008282540192505081905550505050505050565b600080610cb5836124d7565b905060008160ff16111515610cc957600080fd5b600360003373ffffffffffffffffffffffffffffffffffffffff1673ffffffffffffffffffffffffffffffffffffffff16815260200190815260200160002060008260ff1660ff16815260200190815260200160002054915050919050565b80600460003373ffffffffffffffffffffffffffffffffffffffff1673ffffffffffffffffffffffffffffffffffffffff1681526020019081526020016000205410151515610d7657600080fd5b600460003373ffffffffffffffffffffffffffffffffffffffff1673ffffffffffffffffffffffffffffffffffffffff1681526020019081526020016000205481600460003373ffffffffffffffffffffffffffffffffffffffff1673ffffffffffffffffffffffffffffffffffffffff168152602001908152602001600020540311151515610e0557600080fd5b80600460003373ffffffffffffffffffffffffffffffffffffffff1673ffffffffffffffffffffffffffffffffffffffff168152602001908152602001600020600082825403925050819055503373ffffffffffffffffffffffffffffffffffffffff166108fc829081150290604051600060405180830381858888f19350505050158015610e98573d6000803e3d6000fd5b503373ffffffffffffffffffffffffffffffffffffffff167fac9513adf40097763b4664bee3693d0f051127c5ac55e33f68926c1612ac59958242604051808381526020018281526020019250505060405180910390a250565b6000806000806000806000610f068a6124af565b9650600095506000600160008960ff1660ff168152602001908152602001600020600901541480610f52575088600160008960ff1660ff16815260200190815260200160002060070154115b15611198578888029550878610151515610f6b57600080fd5b888610151515610f7a57600080fd5b85600460003373ffffffffffffffffffffffffffffffffffffffff1673ffffffffffffffffffffffffffffffffffffffff1681526020019081526020016000205410151515610fc857600080fd5b600086600460003373ffffffffffffffffffffffffffffffffffffffff1673ffffffffffffffffffffffffffffffffffffffff16815260200190815260200160002054031015151561101957600080fd5b600460003373ffffffffffffffffffffffffffffffffffffffff1673ffffffffffffffffffffffffffffffffffffffff1681526020019081526020016000205486600460003373ffffffffffffffffffffffffffffffffffffffff1673ffffffffffffffffffffffffffffffffffffffff1681526020019081526020016000205403111515156110a857600080fd5b85600460003373ffffffffffffffffffffffffffffffffffffffff1673ffffffffffffffffffffffffffffffffffffffff16815260200190815260200160002060008282540392505081905550611101878a8a33612547565b3373ffffffffffffffffffffffffffffffffffffffff168760ff167f2ef51fa215957689865f55575d7d89840bee8fce54b23ef826fea1a304acdd3f8a8c600160008d60ff1660ff16815260200190815260200160002060020160008f81526020019081526020016000206004015460405180848152602001838152602001828152602001935050505060405180910390a3611e64565b60009450600160008860ff1660ff1681526020019081526020016000206007015493508792505b8884111580156111cf5750600083115b15611e4e57600160008860ff1660ff16815260200190815260200160002060060160008581526020019081526020016000206003015491505b600160008860ff1660ff16815260200190815260200160002060060160008581526020019081526020016000206004015482111580156112485750600083115b15611e2a57600160008860ff1660ff1681526020019081526020016000206006016000858152602001908152602001600020600201600083815260200190815260200160002060000154905082811115156117d457838102945084600460003373ffffffffffffffffffffffffffffffffffffffff1673ffffffffffffffffffffffffffffffffffffffff16815260200190815260200160002054101515156112f057600080fd5b600460003373ffffffffffffffffffffffffffffffffffffffff1673ffffffffffffffffffffffffffffffffffffffff1681526020019081526020016000205485600460003373ffffffffffffffffffffffffffffffffffffffff1673ffffffffffffffffffffffffffffffffffffffff16815260200190815260200160002054031115151561137f57600080fd5b84600460003373ffffffffffffffffffffffffffffffffffffffff1673ffffffffffffffffffffffffffffffffffffffff16815260200190815260200160002060008282540392505081905550600360003373ffffffffffffffffffffffffffffffffffffffff1673ffffffffffffffffffffffffffffffffffffffff16815260200190815260200160002060008860ff1660ff1681526020019081526020016000205481600360003373ffffffffffffffffffffffffffffffffffffffff1673ffffffffffffffffffffffffffffffffffffffff16815260200190815260200160002060008a60ff1660ff16815260200190815260200160002054011015151561148957600080fd5b60046000600160008a60ff1660ff1681526020019081526020016000206006016000878152602001908152602001600020600201600085815260200190815260200160002060010160009054906101000a900473ffffffffffffffffffffffffffffffffffffffff1673ffffffffffffffffffffffffffffffffffffffff1673ffffffffffffffffffffffffffffffffffffffff168152602001908152602001600020548560046000600160008c60ff1660ff1681526020019081526020016000206006016000898152602001908152602001600020600201600087815260200190815260200160002060010160009054906101000a900473ffffffffffffffffffffffffffffffffffffffff1673ffffffffffffffffffffffffffffffffffffffff1673ffffffffffffffffffffffffffffffffffffffff1681526020019081526020016000205401101515156115e057600080fd5b80600360003373ffffffffffffffffffffffffffffffffffffffff1673ffffffffffffffffffffffffffffffffffffffff16815260200190815260200160002060008960ff1660ff168152602001908152602001600020600082825401925050819055506000600160008960ff1660ff16815260200190815260200160002060060160008681526020019081526020016000206002016000848152602001908152602001600020600001819055508460046000600160008b60ff1660ff1681526020019081526020016000206006016000888152602001908152602001600020600201600086815260200190815260200160002060010160009054906101000a900473ffffffffffffffffffffffffffffffffffffffff1673ffffffffffffffffffffffffffffffffffffffff1673ffffffffffffffffffffffffffffffffffffffff16815260200190815260200160002060008282540192505081905550600160008860ff1660ff1681526020019081526020016000206006016000858152602001908152602001600020600301600081548092919060010191905055508660ff167fcbfa5edcd918ef1ec42746c71ac83c456f37330c83a22e44d6cfdca22d56471082868560405180848152602001838152602001828152602001935050505060405180910390a28083039250611c15565b82600160008960ff1660ff168152602001908152602001600020600601600086815260200190815260200160002060020160008481526020019081526020016000206000015411151561182657600080fd5b8383029550600460003373ffffffffffffffffffffffffffffffffffffffff1673ffffffffffffffffffffffffffffffffffffffff1681526020019081526020016000205486600460003373ffffffffffffffffffffffffffffffffffffffff1673ffffffffffffffffffffffffffffffffffffffff1681526020019081526020016000205403111515156118ba57600080fd5b85600460003373ffffffffffffffffffffffffffffffffffffffff1673ffffffffffffffffffffffffffffffffffffffff1681526020019081526020016000206000828254039250508190555060046000600160008a60ff1660ff1681526020019081526020016000206006016000878152602001908152602001600020600201600085815260200190815260200160002060010160009054906101000a900473ffffffffffffffffffffffffffffffffffffffff1673ffffffffffffffffffffffffffffffffffffffff1673ffffffffffffffffffffffffffffffffffffffff168152602001908152602001600020548660046000600160008c60ff1660ff1681526020019081526020016000206006016000898152602001908152602001600020600201600087815260200190815260200160002060010160009054906101000a900473ffffffffffffffffffffffffffffffffffffffff1673ffffffffffffffffffffffffffffffffffffffff1673ffffffffffffffffffffffffffffffffffffffff168152602001908152602001600020540110151515611a5e57600080fd5b82600160008960ff1660ff16815260200190815260200160002060060160008681526020019081526020016000206002016000848152602001908152602001600020600001600082825403925050819055508560046000600160008b60ff1660ff1681526020019081526020016000206006016000888152602001908152602001600020600201600086815260200190815260200160002060010160009054906101000a900473ffffffffffffffffffffffffffffffffffffffff1673ffffffffffffffffffffffffffffffffffffffff1673ffffffffffffffffffffffffffffffffffffffff1681526020019081526020016000206000828254019250508190555082600360003373ffffffffffffffffffffffffffffffffffffffff1673ffffffffffffffffffffffffffffffffffffffff16815260200190815260200160002060008960ff1660ff16815260200190815260200160002060008282540192505081905550600092508660ff167fcbfa5edcd918ef1ec42746c71ac83c456f37330c83a22e44d6cfdca22d56471084868560405180848152602001838152602001828152602001935050505060405180910390a25b600160008860ff1660ff16815260200190815260200160002060060160008581526020019081526020016000206004015482148015611c9857506000600160008960ff1660ff1681526020019081526020016000206006016000868152602001908152602001600020600201600084815260200190815260200160002060000154145b15611e1d57600160008860ff1660ff1681526020019081526020016000206009016000815480929190600190039190505550600160008860ff1660ff168152602001908152602001600020600601600085815260200190815260200160002060000154841480611d3857506000600160008960ff1660ff168152602001908152602001600020600201600086815260200190815260200160002060000154145b15611d64576000600160008960ff1660ff16815260200190815260200160002060070181905550611e1c565b600160008860ff1660ff168152602001908152602001600020600601600085815260200190815260200160002060000154600160008960ff1660ff168152602001908152602001600020600701819055506000600160008960ff1660ff1681526020019081526020016000206006016000600160008b60ff1660ff1681526020019081526020016000206002016000888152602001908152602001600020600001548152602001908152602001600020600101819055505b5b8180600101925050611208565b600160008860ff1660ff1681526020019081526020016000206007015493506111bf565b6000831115611e6357611e628a8a85610ef2565b5b5b50505050505050505050565b606080915091565b505050565b600080611e89836124d7565b905060008160ff161415611ea05760009150611ea5565b600191505b50919050565b600080611eb7856124af565b9050600160008260ff1660ff168152602001908152602001600020600201600085815260200190815260200160002060020160008460ff168152602001908152602001600020600001549150509392505050565b600460003373ffffffffffffffffffffffffffffffffffffffff1673ffffffffffffffffffffffffffffffffffffffff1681526020019081526020016000205434600460003373ffffffffffffffffffffffffffffffffffffffff1673ffffffffffffffffffffffffffffffffffffffff168152602001908152602001600020540110151515611f9a57600080fd5b34600460003373ffffffffffffffffffffffffffffffffffffffff1673ffffffffffffffffffffffffffffffffffffffff168152602001908152602001600020600082825401925050819055503373ffffffffffffffffffffffffffffffffffffffff167f42dbebeb8f6fb795e3007753aef2d4b1a292dd123f6de06a41050186741506373442604051808381526020018281526020019250505060405180910390a2565b60008060009054906101000a900473ffffffffffffffffffffffffffffffffffffffff1673ffffffffffffffffffffffffffffffffffffffff163373ffffffffffffffffffffffffffffffffffffffff16141561224f5761209f83611e7d565b9050600015158115151415156120b457600080fd5b6002600081819054906101000a900460ff168092919060010191906101000a81548160ff021916908360ff160217905550508260016000600260009054906101000a900460ff1660ff1660ff1681526020019081526020016000206001019080519060200190612125929190612d10565b508160016000600260009054906101000a900460ff1660ff1660ff16815260200190815260200160002060000160006101000a81548173ffffffffffffffffffffffffffffffffffffffff021916908373ffffffffffffffffffffffffffffffffffffffff1602179055507f6c71eb76d5d82031f490d3e44dc01d298444e569078199b14510435d81b59ff7600260009054906101000a900460ff168442604051808460ff16815260200180602001838152602001828103825284818151815260200191508051906020019080838360005b838110156122125780820151818401526020810190506121f7565b50505050905090810190601f16801561223f5780820380516001836020036101000a031916815260200191505b5094505050505060405180910390a15b505050565b6000806000808411151561226757600080fd5b6122a286868080601f0160208091040260200160405190810160405280939291908181526020018383808284378201915050505050506124d7565b925060008360ff161115156122b657600080fd5b6122f186868080601f016020809104026020016040519081016040528093929190818152602001838380828437820191505050505050610ca9565b915060008483031015151561230557600080fd5b8184830310151561231557600080fd5b83600360003373ffffffffffffffffffffffffffffffffffffffff1673ffffffffffffffffffffffffffffffffffffffff16815260200190815260200160002060008560ff1660ff16815260200190815260200160002060008282540392505081905550600160008460ff1660ff16815260200190815260200160002060000160009054906101000a900473ffffffffffffffffffffffffffffffffffffffff1690508073ffffffffffffffffffffffffffffffffffffffff1663a9059cbb33866040518363ffffffff167c0100000000000000000000000000000000000000000000000000000000028152600401808373ffffffffffffffffffffffffffffffffffffffff1673ffffffffffffffffffffffffffffffffffffffff16815260200182815260200192505050602060405180830381600087803b15801561245b57600080fd5b505af115801561246f573d6000803e3d6000fd5b505050506040513d602081101561248557600080fd5b810190808051906020019092919050505015156124a157600080fd5b505050505050565b50505050565b6000806124bb836124d7565b905060008160ff1614156124ce57600080fd5b80915050919050565b600080600190505b600260009054906101000a900460ff1660ff168160ff1611151561253c57612522600160008360ff1660ff16815260200190815260200160002060010184612b8d565b1561252f57809150612541565b80806001019150506124df565b600091505b50919050565b600080600080600160008960ff1660ff16815260200190815260200160002060020160008881526020019081526020016000206004016000815480929190600101919050555060408051908101604052808781526020018673ffffffffffffffffffffffffffffffffffffffff16815250600160008a60ff1660ff16815260200190815260200160002060020160008981526020019081526020016000206002016000600160008c60ff1660ff16815260200190815260200160002060020160008b81526020019081526020016000206004015481526020019081526020016000206000820151816000015560208201518160010160006101000a81548173ffffffffffffffffffffffffffffffffffffffff021916908373ffffffffffffffffffffffffffffffffffffffff16021790555090505060018060008a60ff1660ff1681526020019081526020016000206002016000898152602001908152602001600020600401541415612b835760018060008a60ff1660ff168152602001908152602001600020600201600089815260200190815260200160002060030181905550600160008960ff1660ff16815260200190815260200160002060050160008154809291906001019190505550600160008960ff1660ff168152602001908152602001600020600301549350600160008960ff1660ff168152602001908152602001600020600401549250600083148061276257508683115b156128c85760008414156128015786600160008a60ff1660ff1681526020019081526020016000206003018190555086600160008a60ff1660ff1681526020019081526020016000206002016000898152602001908152602001600020600001819055506000600160008a60ff1660ff1681526020019081526020016000206002016000898152602001908152602001600020600101819055506128a2565b86600160008a60ff1660ff16815260200190815260200160002060020160008581526020019081526020016000206001018190555082600160008a60ff1660ff1681526020019081526020016000206002016000898152602001908152602001600020600001819055506000600160008a60ff1660ff1681526020019081526020016000206002016000898152602001908152602001600020600101819055505b86600160008a60ff1660ff16815260200190815260200160002060040181905550612b82565b868410156129955786600160008a60ff1660ff16815260200190815260200160002060020160008681526020019081526020016000206000018190555086600160008a60ff1660ff16815260200190815260200160002060020160008981526020019081526020016000206000018190555083600160008a60ff1660ff16815260200190815260200160002060020160008981526020019081526020016000206001018190555086600160008a60ff1660ff16815260200190815260200160002060030181905550612b81565b600160008960ff1660ff168152602001908152602001600020600301549150600090505b6000821180156129c7575080155b15612b80578682108015612a0a575086600160008a60ff1660ff168152602001908152602001600020600201600084815260200190815260200160002060000154115b15612b485781600160008a60ff1660ff168152602001908152602001600020600201600089815260200190815260200160002060010181905550600160008960ff1660ff168152602001908152602001600020600201600083815260200190815260200160002060000154600160008a60ff1660ff16815260200190815260200160002060020160008981526020019081526020016000206000018190555086600160008a60ff1660ff1681526020019081526020016000206002016000600160008c60ff1660ff16815260200190815260200160002060020160008681526020019081526020016000206000015481526020019081526020016000206001018190555086600160008a60ff1660ff168152602001908152602001600020600201600084815260200190815260200160002060000181905550600190505b600160008960ff1660ff16815260200190815260200160002060020160008381526020019081526020016000206001015491506129b9565b5b5b5b5050505050505050565b60008060606000859250849150815183805460018160011615610100020316600290049050141515612bc25760009350612d07565b600090505b82805460018160011615610100020316600290049050811015612d02578181815181101515612bf257fe5b9060200101517f010000000000000000000000000000000000000000000000000000000000000090047f0100000000000000000000000000000000000000000000000000000000000000027effffffffffffffffffffffffffffffffffffffffffffffffffffffffffffff191683828154600181600116156101000203166002900481101515612c7e57fe5b815460011615612c9d5790600052602060002090602091828204019190065b9054901a7f0100000000000000000000000000000000000000000000000000000000000000027effffffffffffffffffffffffffffffffffffffffffffffffffffffffffffff1916141515612cf55760009350612d07565b8080600101915050612bc7565b600193505b50505092915050565b828054600181600116156101000203166002900490600052602060002090601f016020900481019282601f10612d5157805160ff1916838001178555612d7f565b82800160010185558215612d7f579182015b82811115612d7e578251825591602001919060010190612d63565b5b509050612d8c9190612d90565b5090565b612db291905b80821115612dae576000816000905550600101612d96565b5090565b905600a165627a7a723058208b5cc77dadfd3f6e647e36a5bc4ea3ccbfca85005242d2f171055ed0e004efa70029",
  "source": "pragma solidity ^0.4.26;\n\n\nimport \"./owned.sol\";\nimport \"./FixedSupplyToken.sol\";\n\n\ncontract Exchange is owned {\n\n    ///////////////////////\n    // GENERAL STRUCTURE //\n    ///////////////////////\n    struct Offer {\n      uint amount;\n      address who;\n    }\n\n    struct OrderBook {\n      uint higherPrice;\n      uint lowerPrice;\n      mapping (uint => Offer) offers;\n      uint offers_key;\n      uint offers_length;\n    }\n\n    struct Token {\n        address tokenContract;\n        string symbolName;\n        \n        mapping (uint => OrderBook) buyBook;\n        uint curBuyPrice;\n        uint lowestBuyPrice;\n        uint amountBuyPrices;\n        \n        mapping (uint => OrderBook) sellBook;\n        uint curSellPrice;\n        uint highestSellPrice;\n        uint amountSellPrices;\n    }\n\n\n    //we support a max of 255 tokens...\n    mapping (uint8 => Token) tokens;\n    uint8 symbolNameIndex;\n\n\n    //////////////\n    // BALANCES //\n    //////////////\n    mapping (address => mapping (uint8 => uint)) tokenBalanceForAddress;\n\n    mapping (address => uint) balanceEthForAddress;\n\n\n\n\n    ////////////\n    // EVENTS //\n    ////////////\n    //EVENTS for Deposit/withdrawal\n    event DepositForTokenReceived(address indexed _from, uint indexed _symbolIndex, uint _amount, uint _timestamp);\n\n    event WithdrawalToken(address indexed _to, uint indexed _symbolIndex, uint _amount, uint _timestamp);\n\n    event DepositForEthReceived(address indexed _from, uint _amount, uint _timestamp);\n\n    event WithdrawalEth(address indexed _to, uint _amount, uint _timestamp);\n\n    //events for orders\n    event LimitSellOrderCreated(uint indexed _symbolIndex, address indexed _who, uint _amountTokens, uint _priceInWei, uint _orderKey);\n\n    event SellOrderFulfilled(uint indexed _symbolIndex, uint _amount, uint _priceInWei, uint _orderKey);\n\n    event SellOrderCanceled(uint indexed _symbolIndex, uint _priceInWei, uint _orderKey);\n\n    event LimitBuyOrderCreated(uint indexed _symbolIndex,\n\t\t\t       address indexed _who,\n\t\t\t       uint _amountTokens,\n\t\t\t       uint _priceInWei,\n\t\t\t       uint _orderKey);\n\n    event BuyOrderFulfilled(uint indexed _symbolIndex, uint _amount, uint _priceInWei, uint _orderKey);\n\n    event BuyOrderCanceled(uint indexed _symbolIndex, uint _priceInWei, uint _orderKey);\n\n    //events for management\n    event TokenAddedToSystem(uint _symbolIndex, string _token, uint _timestamp);\n\n    //////////////////////////////////\n    // DEPOSIT AND WITHDRAWAL ETHER //\n    //////////////////////////////////\n\n    function () payable public {}\n    \n    \n    function depositEther() public payable {\n      require(balanceEthForAddress[msg.sender] + msg.value >= balanceEthForAddress[msg.sender]);\n      balanceEthForAddress[msg.sender] += msg.value;\n      emit DepositForEthReceived(msg.sender, msg.value, now);\n    }\n\n    function withdrawEther(uint amountInWei) public {\n      require(balanceEthForAddress[msg.sender] >= amountInWei);\n      require(balanceEthForAddress[msg.sender] - amountInWei <= balanceEthForAddress[msg.sender]);\n      balanceEthForAddress[msg.sender] -= amountInWei;\n      msg.sender.transfer(amountInWei);\n      emit WithdrawalEth(msg.sender, amountInWei, now);\n    }\n\n    function getEthBalanceInWei() public constant returns (uint){\n      return balanceEthForAddress[msg.sender];\n    }\n\n\n    //////////////////////\n    // TOKEN MANAGEMENT //\n    //////////////////////\n\n    function hasToken(string symbolName) public view returns (bool) {\n        uint8 index = getSymbolIndex(symbolName);\n        if (index == 0) {\n            return false;\n        }\n        return true;\n    }\n\n    function addToken(string symbolName, address erc20TokenAddress) public onlyowner {\n        bool tokenExists = hasToken(symbolName);\n        require(tokenExists == false);\n        symbolNameIndex++;\n        tokens[symbolNameIndex].symbolName = symbolName;\n        tokens[symbolNameIndex].tokenContract = erc20TokenAddress;\n\n\temit TokenAddedToSystem(symbolNameIndex, symbolName, now);\n    }\n\n    function getSymbolIndex(string symbolName) internal view returns (uint8) {\n        for (uint8 i=1; i<=symbolNameIndex;i++) {\n            if (stringsEqual(tokens[i].symbolName, symbolName)) {\n                return i;\n            }\n        }\n        return 0;\n    }\n\n    function getSymbolIndexOrThrow(string symbolName) internal view returns (uint8) {\n\n      uint8 index = getSymbolIndex(symbolName);\n      if (index == 0)\n\t{\n\t  revert();\n\t}\n      return index;\n      \n    }\n    \n    function stringsEqual(string storage ss, string memory sm) internal constant returns (bool) {\n        bytes storage bs = bytes(ss);\n        bytes memory bm = bytes(sm);\n        if (bs.length != bm.length) {\n            return false;\n        }\n        for (uint i=0; i<bs.length; i++){\n            if (bs[i] != bm[i]) {\n                return false;\n            }\n        }\n        return true;\n    }\n\n\n    //////////////////////////////////\n    // DEPOSIT AND WITHDRAWAL TOKEN //\n    //////////////////////////////////\n    function depositToken(string symbolName, uint amount) external {\n\n      require(amount > 0);\n    \n      uint8 symbolIndex = getSymbolIndex(symbolName);\n      require(symbolIndex > 0);\n\n      address tokenContract = tokens[symbolIndex].tokenContract;\n      require(tokenContract != address(0));\n\n      uint curBalance = getBalance(symbolName);\n      require(curBalance + amount > 0);\n      require(curBalance + amount > curBalance);\n\n      require(ERC20Interface(tokenContract).transferFrom(msg.sender, this, amount));\n      tokenBalanceForAddress[msg.sender][symbolIndex] += amount;\n\n    }\n\n    function withdrawToken(string symbolName, uint amount) external {\n\n      require(amount > 0);\n\n      uint8 symbolIndex = getSymbolIndex(symbolName);\n      require(symbolIndex > 0);\n      \n      uint curBalance = getBalance(symbolName);\n      require(curBalance - amount >= 0);\n      require(curBalance - amount < curBalance);\n\n      tokenBalanceForAddress[msg.sender][symbolIndex] -= amount;\n      \n      address tokenContract = tokens[symbolIndex].tokenContract;\n      require(ERC20Interface(tokenContract).transfer(msg.sender, amount));\n    }\n\n    function getBalance(string symbolName) constant public returns (uint) {\n      uint8 symbolIndex = getSymbolIndex(symbolName);\n      require(symbolIndex > 0);\n      return tokenBalanceForAddress[msg.sender][symbolIndex];\n    }\n\n\n\n\n\n    /////////////////////////////\n    // ORDER BOOK - BID ORDERS //\n    /////////////////////////////\n    function getBuyOrderBook(string symbolName) public view returns (uint[], uint[]) {\n\n      // Check if symbol is valid\n      uint8 tokenNameIndex = getSymbolIndexOrThrow(symbolName);\n\n      uint orderBookLength = tokens[tokenNameIndex].amountBuyPrices;\n      uint[] memory prices = new uint[](orderBookLength);\n      uint[] memory amounts = new uint[](orderBookLength);\n\n      // If order book is empty ...\n      if (orderBookLength == 0) {\n\n    \t// ... return an empty orderbook ...\n    \treturn (prices, amounts);\n      }\n\n      // ... otherwise, construct the prices and corresponding amounts.\n      //\n      // Start with the highest bid offer.\n      uint whilePrice = tokens[tokenNameIndex].curBuyPrice;\n      uint8 priceIndex = 0;\n\n      // While the next bid price is higher than the current one ...\n      while (true) {\n\n    \t// ... record the current price ...\n    \tprices[priceIndex] = whilePrice;\n\n\t    // ... and loop over the offers to accumulate the amounts for this price.\n\t    for (uint8 offerIdx=1;\n\t        offerIdx <= tokens[tokenNameIndex].buyBook[whilePrice].offers_length;\n\t        offerIdx ++) {\n\t        amounts[priceIndex] += tokens[tokenNameIndex].buyBook[whilePrice].offers[offerIdx].amount;\n\t    }\n\n\t    // Cycle\n\t    whilePrice = tokens[tokenNameIndex].buyBook[whilePrice].lowerPrice;\n\t    priceIndex ++;\n\n\t    // If the next lower price is the same as the curren price ...\n\t    if (priceIndex >= tokens[tokenNameIndex].amountBuyPrices) {\n\n\t    // ... we have reached the last entry, break out.\n\t    break;\n\t    }\n      }          \n\n      // Done\n      return (prices, amounts);\n    }\n\n\n    function getAmount(string tokenSymbol, uint price, uint8 offerIdx) view returns (uint) {\n        uint8 tokenNameIndex = getSymbolIndexOrThrow(tokenSymbol);\n        return tokens[tokenNameIndex].buyBook[price].offers[offerIdx].amount;\n    }\n\n    /////////////////////////////\n    // ORDER BOOK - ASK ORDERS //\n    /////////////////////////////\n    function getSellOrderBook(string symbolName) public constant returns (uint[], uint[]) {\n    }\n\n\n\n\n    ////////////////////////////\n    // NEW ORDER - BID ORDER //\n    ///////////////////////////\n    function buyToken(string symbolName, uint priceInWei, uint amount) public {\n        uint8 tokenNameIndex = getSymbolIndexOrThrow(symbolName);\n        uint total_amount_ether_necessary = 0;\n\n        if (\n\ttokens[tokenNameIndex].amountSellPrices == 0 ||\n\ttokens[tokenNameIndex].curSellPrice > priceInWei) {\n\t\n            //if we have enough ether, we can buy that:\n            total_amount_ether_necessary = amount * priceInWei;\n\n            //overflow check\n            require(total_amount_ether_necessary >= amount);\n            require(total_amount_ether_necessary >= priceInWei);\n            require(balanceEthForAddress[msg.sender] >= total_amount_ether_necessary);\n            require(balanceEthForAddress[msg.sender] - total_amount_ether_necessary >= 0);\n            require(\n\t    balanceEthForAddress[msg.sender] - total_amount_ether_necessary <=\n\t    balanceEthForAddress[msg.sender]);\n\n            //first deduct the amount of ether from our balance\n            balanceEthForAddress[msg.sender] -= total_amount_ether_necessary;\n\n            //limit order: we don't have enough offers to fulfill the amount\n\n            //add the order to the orderBook\n            addBuyOffer(tokenNameIndex, priceInWei, amount, msg.sender);\n            //and emit the event.\n            emit LimitBuyOrderCreated(tokenNameIndex,\n\t\t\t\t      msg.sender,\n\t\t\t\t      amount,\n\t\t\t\t      priceInWei,\n\t\t\t\t      tokens[tokenNameIndex].buyBook[priceInWei].offers_length);\n        }\n        else {\n            //market order: current sell price is smaller or equal to buy price!\n\n            //1st: find the \"cheapest sell price\" that is lower than the buy amount  [buy: 60@5000] [sell: 50@4500] [sell: 5@5000]\n            //2: buy up the volume for 4500\n            //3: buy up the volume for 5000\n            //if still something remaining -> buyToken\n\n            //2: buy up the volume\n            //2.1 add ether to seller, add symbolName to buyer until offers_key <= offers_length\n\n            uint total_amount_ether_available = 0;\n            uint whilePrice = tokens[tokenNameIndex].curSellPrice;\n            uint amountNecessary = amount;\n            uint offers_key;\n            while (whilePrice <= priceInWei && amountNecessary > 0) {//we start with the smallest sell price.\n                offers_key = tokens[tokenNameIndex].sellBook[whilePrice].offers_key;\n                while (offers_key <= tokens[tokenNameIndex].sellBook[whilePrice].offers_length && amountNecessary > 0) {//and the first order (FIFO)\n                    uint volumeAtPriceFromAddress = tokens[tokenNameIndex].sellBook[whilePrice].offers[offers_key].amount;\n\n                    //Two choices from here:\n                    //1) one person offers not enough volume to fulfill the market order - we use it up completely and move on to the next person who offers the symbolName\n                    //2) else: we make use of parts of what a person is offering - lower his amount, fulfill out order.\n                    if (volumeAtPriceFromAddress <= amountNecessary) {\n                        total_amount_ether_available = volumeAtPriceFromAddress * whilePrice;\n\n                        require(balanceEthForAddress[msg.sender] >= total_amount_ether_available);\n                        require(balanceEthForAddress[msg.sender] - total_amount_ether_available <= balanceEthForAddress[msg.sender]);\n                        //first deduct the amount of ether from our balance\n                        balanceEthForAddress[msg.sender] -= total_amount_ether_available;\n\n                        require(tokenBalanceForAddress[msg.sender][tokenNameIndex] + volumeAtPriceFromAddress >= tokenBalanceForAddress[msg.sender][tokenNameIndex]);\n                        require(balanceEthForAddress[tokens[tokenNameIndex].sellBook[whilePrice].offers[offers_key].who] + total_amount_ether_available >= balanceEthForAddress[tokens[tokenNameIndex].sellBook[whilePrice].offers[offers_key].who]);\n                        //overflow check\n                        //this guy offers less or equal the volume that we ask for, so we use it up completely.\n                        tokenBalanceForAddress[msg.sender][tokenNameIndex] += volumeAtPriceFromAddress;\n                        tokens[tokenNameIndex].sellBook[whilePrice].offers[offers_key].amount = 0;\n                        balanceEthForAddress[tokens[tokenNameIndex].sellBook[whilePrice].offers[offers_key].who] += total_amount_ether_available;\n                        tokens[tokenNameIndex].sellBook[whilePrice].offers_key++;\n\n                        emit SellOrderFulfilled(tokenNameIndex, volumeAtPriceFromAddress, whilePrice, offers_key);\n\n                        amountNecessary -= volumeAtPriceFromAddress;\n                    }\n                    else {\n                        require(tokens[tokenNameIndex].sellBook[whilePrice].offers[offers_key].amount > amountNecessary);//sanity\n\n                        total_amount_ether_necessary = amountNecessary * whilePrice;\n                        require(balanceEthForAddress[msg.sender] - total_amount_ether_necessary <= balanceEthForAddress[msg.sender]);\n\n                        //first deduct the amount of ether from our balance\n                        balanceEthForAddress[msg.sender] -= total_amount_ether_necessary;\n\n                        require(balanceEthForAddress[tokens[tokenNameIndex].sellBook[whilePrice].offers[offers_key].who] + total_amount_ether_necessary >= balanceEthForAddress[tokens[tokenNameIndex].sellBook[whilePrice].offers[offers_key].who]);\n                        //overflow check\n                        //this guy offers more than we ask for. We reduce his stack, add the tokens to us and the ether to him.\n                        tokens[tokenNameIndex].sellBook[whilePrice].offers[offers_key].amount -= amountNecessary;\n                        balanceEthForAddress[tokens[tokenNameIndex].sellBook[whilePrice].offers[offers_key].who] += total_amount_ether_necessary;\n                        tokenBalanceForAddress[msg.sender][tokenNameIndex] += amountNecessary;\n\n                        amountNecessary = 0;\n                        //we have fulfilled our order\n                        emit SellOrderFulfilled(tokenNameIndex, amountNecessary, whilePrice, offers_key);\n                    }\n\n                    //if it was the last offer for that price, we have to set the curBuyPrice now lower. Additionally we have one offer less...\n                    if (\n                    offers_key == tokens[tokenNameIndex].sellBook[whilePrice].offers_length &&\n                    tokens[tokenNameIndex].sellBook[whilePrice].offers[offers_key].amount == 0\n                    ) {\n\n                        tokens[tokenNameIndex].amountSellPrices--;\n                        //we have one price offer less here...\n                        //next whilePrice\n                        if (whilePrice == tokens[tokenNameIndex].sellBook[whilePrice].higherPrice || tokens[tokenNameIndex].buyBook[whilePrice].higherPrice == 0) {\n                            tokens[tokenNameIndex].curSellPrice = 0;\n                            //we have reached the last price\n                        }\n                        else {\n                            tokens[tokenNameIndex].curSellPrice = tokens[tokenNameIndex].sellBook[whilePrice].higherPrice;\n                            tokens[tokenNameIndex].sellBook[tokens[tokenNameIndex].buyBook[whilePrice].higherPrice].lowerPrice = 0;\n                        }\n                    }\n                    offers_key++;\n                }\n\n                //we set the curSellPrice again, since when the volume is used up for a lowest price the curSellPrice is set there...\n                whilePrice = tokens[tokenNameIndex].curSellPrice;\n            }\n\n            if (amountNecessary > 0) {\n                buyToken(symbolName, priceInWei, amountNecessary);\n                //add a limit order!\n            }\n        }\n    }\n\n\n    ///////////////////////////\n    // BID LIMIT ORDER LOGIC //\n    ///////////////////////////\n    function addBuyOffer(uint8 tokenIndex, uint priceInWei, uint amount, address who) internal {\n        tokens[tokenIndex].buyBook[priceInWei].offers_length++;\n        tokens[tokenIndex].buyBook[priceInWei].offers[tokens[tokenIndex].buyBook[priceInWei].offers_length] = Offer(amount, who);\n\n\n        if (tokens[tokenIndex].buyBook[priceInWei].offers_length == 1) {\n            tokens[tokenIndex].buyBook[priceInWei].offers_key = 1;\n            //we have a new buy order - increase the counter, so we can set the getOrderBook array later\n            tokens[tokenIndex].amountBuyPrices++;\n\n\n            //lowerPrice and higherPrice have to be set\n            uint curBuyPrice = tokens[tokenIndex].curBuyPrice;\n\n            uint lowestBuyPrice = tokens[tokenIndex].lowestBuyPrice;\n            if (lowestBuyPrice == 0 || lowestBuyPrice > priceInWei) {\n                if (curBuyPrice == 0) {\n                    //there is no buy order yet, we insert the first one...\n                    tokens[tokenIndex].curBuyPrice = priceInWei;\n                    tokens[tokenIndex].buyBook[priceInWei].higherPrice = priceInWei;\n                    tokens[tokenIndex].buyBook[priceInWei].lowerPrice = 0;\n                }\n                else {\n                    //or the lowest one\n                    tokens[tokenIndex].buyBook[lowestBuyPrice].lowerPrice = priceInWei;\n                    tokens[tokenIndex].buyBook[priceInWei].higherPrice = lowestBuyPrice;\n                    tokens[tokenIndex].buyBook[priceInWei].lowerPrice = 0;\n                }\n                tokens[tokenIndex].lowestBuyPrice = priceInWei;\n            }\n            else if (curBuyPrice < priceInWei) {\n                //the offer to buy is the highest one, we don't need to find the right spot\n                tokens[tokenIndex].buyBook[curBuyPrice].higherPrice = priceInWei;\n                tokens[tokenIndex].buyBook[priceInWei].higherPrice = priceInWei;\n                tokens[tokenIndex].buyBook[priceInWei].lowerPrice = curBuyPrice;\n                tokens[tokenIndex].curBuyPrice = priceInWei;\n\n            }\n            else {\n                //we are somewhere in the middle, we need to find the right spot first...\n\n                uint buyPrice = tokens[tokenIndex].curBuyPrice;\n                bool weFoundIt = false;\n                while (buyPrice > 0 && !weFoundIt) {\n                    if (\n                    buyPrice < priceInWei &&\n                    tokens[tokenIndex].buyBook[buyPrice].higherPrice > priceInWei\n                    ) {\n                        //set the new order-book entry higher/lowerPrice first right\n                        tokens[tokenIndex].buyBook[priceInWei].lowerPrice = buyPrice;\n                        tokens[tokenIndex].buyBook[priceInWei].higherPrice = tokens[tokenIndex].buyBook[buyPrice].higherPrice;\n\n                        //set the higherPrice'd order-book entries lowerPrice to the current Price\n                        tokens[tokenIndex].buyBook[tokens[tokenIndex].buyBook[buyPrice].higherPrice].lowerPrice = priceInWei;\n                        //set the lowerPrice'd order-book entries higherPrice to the current Price\n                        tokens[tokenIndex].buyBook[buyPrice].higherPrice = priceInWei;\n\n                        //set we found it.\n                        weFoundIt = true;\n                    }\n                    buyPrice = tokens[tokenIndex].buyBook[buyPrice].lowerPrice;\n                }\n            }\n        }\n    }\n\n    ////////////////////////////\n    // NEW ORDER - ASK ORDER //\n    ///////////////////////////\n    function sellToken(string symbolName, uint priceInWei, uint amount) public {\n    }\n\n\n\n    //////////////////////////////\n    // CANCEL LIMIT ORDER LOGIC //\n    //////////////////////////////\n    function cancelOrder(string symbolName, bool isSellOrder, uint priceInWei, uint offerKey) public {\n    }\n\n\n\n}\n",
  "sourcePath": "/home/ytsen/udemy/truffle/contracts/Exchange.sol",
  "compiler": {
    "name": "solc",
    "version": "0.4.26+commit.4563c3fc.Emscripten.clang"
  },
  "schemaVersion": "3.0.13",
  "updatedAt": "2019-09-11T15:57:10.103Z",
  "devdoc": {
    "methods": {}
  },
  "userdoc": {
    "methods": {
      "buyToken(string,uint256,uint256)": {
        "notice": "////////////////////////"
      },
      "cancelOrder(string,bool,uint256,uint256)": {
        "notice": "///////////////////////////"
      },
      "depositToken(string,uint256)": {
        "notice": "///////////////////////////////"
      },
      "getBuyOrderBook(string)": {
        "notice": "//////////////////////////"
      },
      "getSellOrderBook(string)": {
        "notice": "//////////////////////////"
      },
      "hasToken(string)": {
        "notice": "///////////////////"
      },
      "sellToken(string,uint256,uint256)": {
        "notice": "////////////////////////"
      }
    }
  }
}